{
  "contractName": "FileIndex",
  "abi": [
    {
      "inputs": [
        {
          "internalType": "uint256",
          "name": "",
          "type": "uint256"
        }
      ],
      "name": "files",
      "outputs": [
        {
          "internalType": "string",
          "name": "cid",
          "type": "string"
        },
        {
          "internalType": "string",
          "name": "filePath",
          "type": "string"
        },
        {
          "internalType": "address",
          "name": "uploader",
          "type": "address"
        }
      ],
      "stateMutability": "view",
      "type": "function",
      "constant": true
    },
    {
      "inputs": [
        {
          "internalType": "uint256",
          "name": "fileId",
          "type": "uint256"
        },
        {
          "internalType": "string",
          "name": "cid",
          "type": "string"
        },
        {
          "internalType": "string",
          "name": "filePath",
          "type": "string"
        }
      ],
      "name": "storeFile",
      "outputs": [],
      "stateMutability": "nonpayable",
      "type": "function"
    },
    {
      "inputs": [
        {
          "internalType": "uint256",
          "name": "fileId",
          "type": "uint256"
        }
      ],
      "name": "getFile",
      "outputs": [
        {
          "internalType": "string",
          "name": "cid",
          "type": "string"
        },
        {
          "internalType": "string",
          "name": "filePath",
          "type": "string"
        },
        {
          "internalType": "address",
          "name": "uploader",
          "type": "address"
        }
      ],
      "stateMutability": "view",
      "type": "function",
      "constant": true
    }
  ],
  "bytecode": "0x608060405234801561001057600080fd5b506108b4806100206000396000f3fe608060405234801561001057600080fd5b50600436106100415760003560e01c80632bfda31314610046578063bf8287b814610078578063f4c714b414610094575b600080fd5b610060600480360381019061005b9190610596565b6100c6565b60405161006f93929190610686565b60405180910390f35b610092600480360381019061008d91906105bf565b610250565b005b6100ae60048036038101906100a99190610596565b61031c565b6040516100bd93929190610686565b60405180910390f35b606080600080600085815260200190815260200160002060000160008086815260200190815260200160002060010160008087815260200190815260200160002060020160009054906101000a900473ffffffffffffffffffffffffffffffffffffffff16828054610137906107c6565b80601f0160208091040260200160405190810160405280929190818152602001828054610163906107c6565b80156101b05780601f10610185576101008083540402835291602001916101b0565b820191906000526020600020905b81548152906001019060200180831161019357829003601f168201915b505050505092508180546101c3906107c6565b80601f01602080910402602001604051908101604052809291908181526020018280546101ef906107c6565b801561023c5780601f106102115761010080835404028352916020019161023c565b820191906000526020600020905b81548152906001019060200180831161021f57829003601f168201915b505050505091509250925092509193909250565b60405180606001604052808381526020018281526020013373ffffffffffffffffffffffffffffffffffffffff1681525060008085815260200190815260200160002060008201518160000190805190602001906102af929190610476565b5060208201518160010190805190602001906102cc929190610476565b5060408201518160020160006101000a81548173ffffffffffffffffffffffffffffffffffffffff021916908373ffffffffffffffffffffffffffffffffffffffff160217905550905050505050565b600060205280600052604060002060009150905080600001805461033f906107c6565b80601f016020809104026020016040519081016040528092919081815260200182805461036b906107c6565b80156103b85780601f1061038d576101008083540402835291602001916103b8565b820191906000526020600020905b81548152906001019060200180831161039b57829003601f168201915b5050505050908060010180546103cd906107c6565b80601f01602080910402602001604051908101604052809291908181526020018280546103f9906107c6565b80156104465780601f1061041b57610100808354040283529160200191610446565b820191906000526020600020905b81548152906001019060200180831161042957829003601f168201915b5050505050908060020160009054906101000a900473ffffffffffffffffffffffffffffffffffffffff16905083565b828054610482906107c6565b90600052602060002090601f0160209004810192826104a457600085556104eb565b82601f106104bd57805160ff19168380011785556104eb565b828001600101855582156104eb579182015b828111156104ea5782518255916020019190600101906104cf565b5b5090506104f891906104fc565b5090565b5b808211156105155760008160009055506001016104fd565b5090565b600061052c610527846106fc565b6106cb565b90508281526020810184848401111561054457600080fd5b61054f848285610784565b509392505050565b600082601f83011261056857600080fd5b8135610578848260208601610519565b91505092915050565b60008135905061059081610867565b92915050565b6000602082840312156105a857600080fd5b60006105b684828501610581565b91505092915050565b6000806000606084860312156105d457600080fd5b60006105e286828701610581565b935050602084013567ffffffffffffffff8111156105ff57600080fd5b61060b86828701610557565b925050604084013567ffffffffffffffff81111561062857600080fd5b61063486828701610557565b9150509250925092565b61064781610748565b82525050565b60006106588261072c565b6106628185610737565b9350610672818560208601610793565b61067b81610856565b840191505092915050565b600060608201905081810360008301526106a0818661064d565b905081810360208301526106b4818561064d565b90506106c3604083018461063e565b949350505050565b6000604051905081810181811067ffffffffffffffff821117156106f2576106f1610827565b5b8060405250919050565b600067ffffffffffffffff82111561071757610716610827565b5b601f19601f8301169050602081019050919050565b600081519050919050565b600082825260208201905092915050565b60006107538261075a565b9050919050565b600073ffffffffffffffffffffffffffffffffffffffff82169050919050565b6000819050919050565b82818337600083830152505050565b60005b838110156107b1578082015181840152602081019050610796565b838111156107c0576000848401525b50505050565b600060028204905060018216806107de57607f821691505b602082108114156107f2576107f16107f8565b5b50919050565b7f4e487b7100000000000000000000000000000000000000000000000000000000600052602260045260246000fd5b7f4e487b7100000000000000000000000000000000000000000000000000000000600052604160045260246000fd5b6000601f19601f8301169050919050565b6108708161077a565b811461087b57600080fd5b5056fea26469706673582212207f649fcc588c0a38b5f8e38b376da0600051f81d68c3aefa41d527ee3200941564736f6c63430008000033",
  "immutableReferences": {},
  "source": "// SPDX-License-Identifier: MIT\r\npragma solidity ^0.8.0;\r\n\r\ncontract FileIndex {\r\n    // Mapping to store files by their ID\r\n    mapping(uint256 => File) public files;\r\n\r\n    // Struct to represent a file\r\n    struct File {\r\n        string cid;\r\n        string filePath;\r\n        address uploader;\r\n    }\r\n\r\n    // Store a file's data\r\n    function storeFile(uint256 fileId, string memory cid, string memory filePath) public {\r\n        files[fileId] = File(cid, filePath, msg.sender); // Store data\r\n    }\r\n\r\n    // Retrieve a file's data by its ID\r\n    function getFile(uint256 fileId) public view returns (string memory cid, string memory filePath, address uploader) {\r\n        return (files[fileId].cid, files[fileId].filePath, files[fileId].uploader);\r\n    }\r\n}\r\n",
  "sourcePath": "C:\\Users\\WINDOWS\\Documents\\CSS453_SEiMCS\\contracts\\FileIndex.sol",
  "compiler": {
    "name": "solc",
    "version": "0.8.0+commit.c7dfd78e.Emscripten.clang"
  },
  "schemaVersion": "3.4.16",
  "updatedAt": "2024-11-22T16:32:45.430Z",
  "networkType": "ethereum",
  "devdoc": {
    "kind": "dev",
    "methods": {},
    "version": 1
  },
  "userdoc": {
    "kind": "user",
    "methods": {},
    "version": 1
  }
}