{
  "contractName": "PIDtoCIDMapping",
  "abi": [
    {
      "anonymous": false,
      "inputs": [
        {
          "indexed": false,
          "internalType": "string",
          "name": "pid",
          "type": "string"
        },
        {
          "indexed": false,
          "internalType": "string",
          "name": "cid",
          "type": "string"
        }
      ],
      "name": "MappingAdded",
      "type": "event"
    },
    {
      "inputs": [
        {
          "internalType": "string",
          "name": "",
          "type": "string"
        }
      ],
      "name": "pidToCid",
      "outputs": [
        {
          "internalType": "string",
          "name": "",
          "type": "string"
        }
      ],
      "stateMutability": "view",
      "type": "function"
    },
    {
      "inputs": [
        {
          "internalType": "string",
          "name": "pid",
          "type": "string"
        },
        {
          "internalType": "string",
          "name": "cid",
          "type": "string"
        }
      ],
      "name": "addMapping",
      "outputs": [],
      "stateMutability": "nonpayable",
      "type": "function"
    },
    {
      "inputs": [
        {
          "internalType": "string",
          "name": "pid",
          "type": "string"
        }
      ],
      "name": "getCID",
      "outputs": [
        {
          "internalType": "string",
          "name": "",
          "type": "string"
        }
      ],
      "stateMutability": "view",
      "type": "function"
    },
    {
      "inputs": [
        {
          "internalType": "string[]",
          "name": "pids",
          "type": "string[]"
        }
      ],
      "name": "getCIDs",
      "outputs": [
        {
          "internalType": "string[]",
          "name": "",
          "type": "string[]"
        }
      ],
      "stateMutability": "view",
      "type": "function"
    }
  ],
  "bytecode": "0x608060405234801561001057600080fd5b50610b79806100206000396000f3fe608060405234801561001057600080fd5b506004361061004c5760003560e01c80631c461ee11461005157806375fa86ce1461008157806377608f721461009d578063e0b5bd76146100cd575b600080fd5b61006b60048036038101906100669190610675565b6100fd565b6040516100789190610887565b60405180910390f35b61009b600480360381019061009691906106b6565b6101ad565b005b6100b760048036038101906100b29190610675565b61021d565b6040516100c49190610887565b60405180910390f35b6100e760048036038101906100e29190610634565b6102d3565b6040516100f49190610865565b60405180910390f35b606060008260405161010f919061084e565b9081526020016040518091039020805461012890610a2a565b80601f016020809104026020016040519081016040528092919081815260200182805461015490610a2a565b80156101a15780601f10610176576101008083540402835291602001916101a1565b820191906000526020600020905b81548152906001019060200180831161018457829003601f168201915b50505050509050919050565b806000836040516101be919061084e565b908152602001604051809103902090805190602001906101df9291906104a2565b507f21c8112d9b5ff3c2c4e03cefe5cdbc524968f96c6e7b1101951375c1b965bc7b82826040516102119291906108a9565b60405180910390a15050565b600081805160208101820180518482526020830160208501208183528095505050505050600091509050805461025290610a2a565b80601f016020809104026020016040519081016040528092919081815260200182805461027e90610a2a565b80156102cb5780601f106102a0576101008083540402835291602001916102cb565b820191906000526020600020905b8154815290600101906020018083116102ae57829003601f168201915b505050505081565b60606000825167ffffffffffffffff811115610318577f4e487b7100000000000000000000000000000000000000000000000000000000600052604160045260246000fd5b60405190808252806020026020018201604052801561034b57816020015b60608152602001906001900390816103365790505b50905060005b8351811015610498576000848281518110610395577f4e487b7100000000000000000000000000000000000000000000000000000000600052603260045260246000fd5b60200260200101516040516103aa919061084e565b908152602001604051809103902080546103c390610a2a565b80601f01602080910402602001604051908101604052809291908181526020018280546103ef90610a2a565b801561043c5780601f106104115761010080835404028352916020019161043c565b820191906000526020600020905b81548152906001019060200180831161041f57829003601f168201915b505050505082828151811061047a577f4e487b7100000000000000000000000000000000000000000000000000000000600052603260045260246000fd5b6020026020010181905250808061049090610a5c565b915050610351565b5080915050919050565b8280546104ae90610a2a565b90600052602060002090601f0160209004810192826104d05760008555610517565b82601f106104e957805160ff1916838001178555610517565b82800160010185558215610517579182015b828111156105165782518255916020019190600101906104fb565b5b5090506105249190610528565b5090565b5b80821115610541576000816000905550600101610529565b5090565b600061055861055384610911565b6108e0565b9050808382526020820190508260005b85811015610598578135850161057e888261060a565b845260208401935060208301925050600181019050610568565b5050509392505050565b60006105b56105b08461093d565b6108e0565b9050828152602081018484840111156105cd57600080fd5b6105d88482856109e8565b509392505050565b600082601f8301126105f157600080fd5b8135610601848260208601610545565b91505092915050565b600082601f83011261061b57600080fd5b813561062b8482602086016105a2565b91505092915050565b60006020828403121561064657600080fd5b600082013567ffffffffffffffff81111561066057600080fd5b61066c848285016105e0565b91505092915050565b60006020828403121561068757600080fd5b600082013567ffffffffffffffff8111156106a157600080fd5b6106ad8482850161060a565b91505092915050565b600080604083850312156106c957600080fd5b600083013567ffffffffffffffff8111156106e357600080fd5b6106ef8582860161060a565b925050602083013567ffffffffffffffff81111561070c57600080fd5b6107188582860161060a565b9150509250929050565b600061072e83836107ab565b905092915050565b60006107418261097d565b61074b81856109a0565b93508360208202850161075d8561096d565b8060005b85811015610799578484038952815161077a8582610722565b945061078583610993565b925060208a01995050600181019050610761565b50829750879550505050505092915050565b60006107b682610988565b6107c081856109b1565b93506107d08185602086016109f7565b6107d981610b32565b840191505092915050565b60006107ef82610988565b6107f981856109c2565b93506108098185602086016109f7565b61081281610b32565b840191505092915050565b600061082882610988565b61083281856109d3565b93506108428185602086016109f7565b80840191505092915050565b600061085a828461081d565b915081905092915050565b6000602082019050818103600083015261087f8184610736565b905092915050565b600060208201905081810360008301526108a181846107e4565b905092915050565b600060408201905081810360008301526108c381856107e4565b905081810360208301526108d781846107e4565b90509392505050565b6000604051905081810181811067ffffffffffffffff8211171561090757610906610b03565b5b8060405250919050565b600067ffffffffffffffff82111561092c5761092b610b03565b5b602082029050602081019050919050565b600067ffffffffffffffff82111561095857610957610b03565b5b601f19601f8301169050602081019050919050565b6000819050602082019050919050565b600081519050919050565b600081519050919050565b6000602082019050919050565b600082825260208201905092915050565b600082825260208201905092915050565b600082825260208201905092915050565b600081905092915050565b6000819050919050565b82818337600083830152505050565b60005b83811015610a155780820151818401526020810190506109fa565b83811115610a24576000848401525b50505050565b60006002820490506001821680610a4257607f821691505b60208210811415610a5657610a55610ad4565b5b50919050565b6000610a67826109de565b91507fffffffffffffffffffffffffffffffffffffffffffffffffffffffffffffffff821415610a9a57610a99610aa5565b5b600182019050919050565b7f4e487b7100000000000000000000000000000000000000000000000000000000600052601160045260246000fd5b7f4e487b7100000000000000000000000000000000000000000000000000000000600052602260045260246000fd5b7f4e487b7100000000000000000000000000000000000000000000000000000000600052604160045260246000fd5b6000601f19601f830116905091905056fea264697066735822122028c12a80523314508edc4c830e063d073241c96739383132442d96e5ec6199c064736f6c63430008000033",
  "immutableReferences": {},
  "source": "pragma solidity ^0.8.0;\r\n\r\ncontract PIDtoCIDMapping {\r\n    mapping(string => string) public pidToCid;\r\n\r\n    event MappingAdded(string pid, string cid);\r\n\r\n    // Add a new PID-CID mapping\r\n    function addMapping(string memory pid, string memory cid) public {\r\n        pidToCid[pid] = cid;\r\n        emit MappingAdded(pid, cid);\r\n    }\r\n\r\n    // Retrieve CID by PID\r\n    function getCID(string memory pid) public view returns (string memory) {\r\n        return pidToCid[pid];\r\n    }\r\n\r\n    // Retrieve CIDs for multiple PIDs\r\n    function getCIDs(string[] memory pids) public view returns (string[] memory) {\r\n        string[] memory cids = new string[](pids.length);\r\n        for (uint256 i = 0; i < pids.length; i++) {\r\n            cids[i] = pidToCid[pids[i]];\r\n        }\r\n        return cids;\r\n    }\r\n}\r\n",
  "sourcePath": "C:\\Users\\WINDOWS\\Documents\\CSS453_SEiMCS\\contracts\\StoreCIDs.sol",
  "compiler": {
    "name": "solc",
    "version": "0.8.0+commit.c7dfd78e.Emscripten.clang"
  },
  "schemaVersion": "3.4.16",
  "updatedAt": "2024-11-23T13:32:13.286Z",
  "devdoc": {
    "kind": "dev",
    "methods": {},
    "version": 1
  },
  "userdoc": {
    "kind": "user",
    "methods": {},
    "version": 1
  }
}