{
  "contractName": "AuthContract",
  "abi": [
    {
      "anonymous": false,
      "inputs": [
        {
          "indexed": false,
          "internalType": "address",
          "name": "user",
          "type": "address"
        },
        {
          "indexed": false,
          "internalType": "string",
          "name": "role",
          "type": "string"
        }
      ],
      "name": "AuthenticationSuccess",
      "type": "event"
    },
    {
      "inputs": [
        {
          "internalType": "address",
          "name": "userAddress",
          "type": "address"
        },
        {
          "internalType": "string",
          "name": "passwordHash",
          "type": "string"
        },
        {
          "internalType": "string",
          "name": "role",
          "type": "string"
        }
      ],
      "name": "registerUser",
      "outputs": [],
      "stateMutability": "nonpayable",
      "type": "function"
    },
    {
      "inputs": [
        {
          "internalType": "address",
          "name": "userAddress",
          "type": "address"
        },
        {
          "internalType": "string",
          "name": "passwordHash",
          "type": "string"
        }
      ],
      "name": "authenticate",
      "outputs": [
        {
          "internalType": "bool",
          "name": "",
          "type": "bool"
        }
      ],
      "stateMutability": "nonpayable",
      "type": "function"
    },
    {
      "inputs": [
        {
          "internalType": "address",
          "name": "userAddress",
          "type": "address"
        }
      ],
      "name": "getRole",
      "outputs": [
        {
          "internalType": "string",
          "name": "",
          "type": "string"
        }
      ],
      "stateMutability": "view",
      "type": "function",
      "constant": true
    }
  ],
  "bytecode": "0x608060405234801561001057600080fd5b506109b5806100206000396000f3fe608060405234801561001057600080fd5b50600436106100415760003560e01c806344276733146100465780634d82d47714610076578063db0c87c9146100a6575b600080fd5b610060600480360381019061005b919061050c565b6100c2565b60405161006d9190610788565b60405180910390f35b610090600480360381019061008b9190610535565b610193565b60405161009d919061076d565b60405180910390f35b6100c060048036038101906100bb9190610589565b610340565b005b6060600160008373ffffffffffffffffffffffffffffffffffffffff1673ffffffffffffffffffffffffffffffffffffffff168152602001908152602001600020805461010e906108c7565b80601f016020809104026020016040519081016040528092919081815260200182805461013a906108c7565b80156101875780601f1061015c57610100808354040283529160200191610187565b820191906000526020600020905b81548152906001019060200180831161016a57829003601f168201915b50505050509050919050565b60008060008473ffffffffffffffffffffffffffffffffffffffff1673ffffffffffffffffffffffffffffffffffffffff1681526020019081526020016000206040516020016101e39190610726565b604051602081830303815290604052805190602001208260405160200161020a919061070f565b604051602081830303815290604052805190602001201415610335576000600160008573ffffffffffffffffffffffffffffffffffffffff1673ffffffffffffffffffffffffffffffffffffffff1681526020019081526020016000208054610272906108c7565b80601f016020809104026020016040519081016040528092919081815260200182805461029e906108c7565b80156102eb5780601f106102c0576101008083540402835291602001916102eb565b820191906000526020600020905b8154815290600101906020018083116102ce57829003601f168201915b505050505090507f628cd883637ee12e447365f0bcbad5951576ed707d4579e10e222c62d8002c29848260405161032392919061073d565b60405180910390a1600191505061033a565b600090505b92915050565b816000808573ffffffffffffffffffffffffffffffffffffffff1673ffffffffffffffffffffffffffffffffffffffff16815260200190815260200160002090805190602001906103929291906103ec565b5080600160008573ffffffffffffffffffffffffffffffffffffffff1673ffffffffffffffffffffffffffffffffffffffff16815260200190815260200160002090805190602001906103e69291906103ec565b50505050565b8280546103f8906108c7565b90600052602060002090601f01602090048101928261041a5760008555610461565b82601f1061043357805160ff1916838001178555610461565b82800160010185558215610461579182015b82811115610460578251825591602001919060010190610445565b5b50905061046e9190610472565b5090565b5b8082111561048b576000816000905550600101610473565b5090565b60006104a261049d846107db565b6107aa565b9050828152602081018484840111156104ba57600080fd5b6104c5848285610885565b509392505050565b6000813590506104dc81610968565b92915050565b600082601f8301126104f357600080fd5b813561050384826020860161048f565b91505092915050565b60006020828403121561051e57600080fd5b600061052c848285016104cd565b91505092915050565b6000806040838503121561054857600080fd5b6000610556858286016104cd565b925050602083013567ffffffffffffffff81111561057357600080fd5b61057f858286016104e2565b9150509250929050565b60008060006060848603121561059e57600080fd5b60006105ac868287016104cd565b935050602084013567ffffffffffffffff8111156105c957600080fd5b6105d5868287016104e2565b925050604084013567ffffffffffffffff8111156105f257600080fd5b6105fe868287016104e2565b9150509250925092565b61061181610847565b82525050565b61062081610859565b82525050565b600061063182610820565b61063b818561082b565b935061064b818560208601610894565b61065481610957565b840191505092915050565b600061066a82610820565b610674818561083c565b9350610684818560208601610894565b80840191505092915050565b6000815461069d816108c7565b6106a7818661083c565b945060018216600081146106c257600181146106d357610706565b60ff19831686528186019350610706565b6106dc8561080b565b60005b838110156106fe578154818901526001820191506020810190506106df565b838801955050505b50505092915050565b600061071b828461065f565b915081905092915050565b60006107328284610690565b915081905092915050565b60006040820190506107526000830185610608565b81810360208301526107648184610626565b90509392505050565b60006020820190506107826000830184610617565b92915050565b600060208201905081810360008301526107a28184610626565b905092915050565b6000604051905081810181811067ffffffffffffffff821117156107d1576107d0610928565b5b8060405250919050565b600067ffffffffffffffff8211156107f6576107f5610928565b5b601f19601f8301169050602081019050919050565b60008190508160005260206000209050919050565b600081519050919050565b600082825260208201905092915050565b600081905092915050565b600061085282610865565b9050919050565b60008115159050919050565b600073ffffffffffffffffffffffffffffffffffffffff82169050919050565b82818337600083830152505050565b60005b838110156108b2578082015181840152602081019050610897565b838111156108c1576000848401525b50505050565b600060028204905060018216806108df57607f821691505b602082108114156108f3576108f26108f9565b5b50919050565b7f4e487b7100000000000000000000000000000000000000000000000000000000600052602260045260246000fd5b7f4e487b7100000000000000000000000000000000000000000000000000000000600052604160045260246000fd5b6000601f19601f8301169050919050565b61097181610847565b811461097c57600080fd5b5056fea26469706673582212205ea8dadc2cdda4dd1b2f5c6c6fee3a7a70dfd96bcc96bc1036271de8e7e3b53d64736f6c63430008000033",
  "immutableReferences": {},
  "source": "// SPDX-License-Identifier: MIT\r\npragma solidity ^0.8.0;\r\n\r\ncontract AuthContract {\r\n    // Store user credentials (hashed password) and roles\r\n    mapping(address => string) private userPasswordHashes;\r\n    mapping(address => string) private userRoles;\r\n\r\n    // Event to log successful authentication\r\n    event AuthenticationSuccess(address user, string role);\r\n\r\n    // Function to register a user with their password hash and role\r\n    function registerUser(address userAddress, string memory passwordHash, string memory role) public {\r\n        userPasswordHashes[userAddress] = passwordHash;\r\n        userRoles[userAddress] = role;\r\n    }\r\n\r\n    // Function to authenticate a user by comparing password hash\r\n    function authenticate(address userAddress, string memory passwordHash) public returns (bool) {\r\n        // Check if the provided password hash matches the stored hash\r\n        if (keccak256(abi.encodePacked(passwordHash)) == keccak256(abi.encodePacked(userPasswordHashes[userAddress]))) {\r\n            string memory role = userRoles[userAddress];\r\n            emit AuthenticationSuccess(userAddress, role);\r\n            return true;  // Authentication success\r\n        } else {\r\n            return false;  // Authentication failed\r\n        }\r\n    }\r\n\r\n    // Function to get the role of a user\r\n    function getRole(address userAddress) public view returns (string memory) {\r\n        return userRoles[userAddress];\r\n    }\r\n}\r\n",
  "sourcePath": "C:\\Users\\roblu\\Desktop\\Cyber\\code\\myproject\\contracts\\AuthContract.sol",
  "compiler": {
    "name": "solc",
    "version": "0.8.0+commit.c7dfd78e.Emscripten.clang"
  },
  "schemaVersion": "3.4.16",
  "updatedAt": "2024-11-23T16:28:36.867Z",
  "networkType": "ethereum",
  "devdoc": {
    "kind": "dev",
    "methods": {},
    "version": 1
  },
  "userdoc": {
    "kind": "user",
    "methods": {},
    "version": 1
  }
}