{
  "contractName": "AuthContract",
  "abi": [
    {
      "inputs": [
        {
          "internalType": "address",
          "name": "userAddress",
          "type": "address"
        },
        {
          "internalType": "bytes32",
          "name": "passwordHash",
          "type": "bytes32"
        }
      ],
      "name": "registerUser",
      "outputs": [],
      "stateMutability": "nonpayable",
      "type": "function"
    },
    {
      "inputs": [
        {
          "internalType": "address",
          "name": "userAddress",
          "type": "address"
        },
        {
          "internalType": "bytes32",
          "name": "passwordHash",
          "type": "bytes32"
        }
      ],
      "name": "authenticate",
      "outputs": [
        {
          "internalType": "bool",
          "name": "",
          "type": "bool"
        }
      ],
      "stateMutability": "view",
      "type": "function",
      "constant": true
    },
    {
      "inputs": [
        {
          "internalType": "address",
          "name": "userAddress",
          "type": "address"
        }
      ],
      "name": "getStoredHash",
      "outputs": [
        {
          "internalType": "bytes32",
          "name": "",
          "type": "bytes32"
        }
      ],
      "stateMutability": "view",
      "type": "function",
      "constant": true
    }
  ],
  "bytecode": "0x608060405234801561001057600080fd5b506105cf806100206000396000f3fe608060405234801561001057600080fd5b50600436106100415760003560e01c8063c7ad776114610046578063d7e0b6e314610076578063f234b89114610092575b600080fd5b610060600480360381019061005b9190610339565b6100c2565b60405161006d9190610497565b60405180910390f35b610090600480360381019061008b9190610362565b61010a565b005b6100ac60048036038101906100a79190610362565b6102c4565b6040516100b9919061047c565b60405180910390f35b60008060008373ffffffffffffffffffffffffffffffffffffffff1673ffffffffffffffffffffffffffffffffffffffff168152602001908152602001600020549050919050565b600073ffffffffffffffffffffffffffffffffffffffff168273ffffffffffffffffffffffffffffffffffffffff16141561017a576040517f08c379a0000000000000000000000000000000000000000000000000000000008152600401610171906104b2565b60405180910390fd5b6000801b6000808473ffffffffffffffffffffffffffffffffffffffff1673ffffffffffffffffffffffffffffffffffffffff16815260200190815260200160002054146101fd576040517f08c379a00000000000000000000000000000000000000000000000000000000081526004016101f4906104d2565b60405180910390fd5b806000808473ffffffffffffffffffffffffffffffffffffffff1673ffffffffffffffffffffffffffffffffffffffff16815260200190815260200160002081905550806000808473ffffffffffffffffffffffffffffffffffffffff1673ffffffffffffffffffffffffffffffffffffffff16815260200190815260200160002054146102c0576040517f08c379a00000000000000000000000000000000000000000000000000000000081526004016102b7906104f2565b60405180910390fd5b5050565b6000816000808573ffffffffffffffffffffffffffffffffffffffff1673ffffffffffffffffffffffffffffffffffffffff1681526020019081526020016000205414905092915050565b60008135905061031e8161056b565b92915050565b60008135905061033381610582565b92915050565b60006020828403121561034b57600080fd5b60006103598482850161030f565b91505092915050565b6000806040838503121561037557600080fd5b60006103838582860161030f565b925050602061039485828601610324565b9150509250929050565b6103a781610535565b82525050565b6103b681610541565b82525050565b60006103c9600f83610512565b91507f496e76616c6964206164647265737300000000000000000000000000000000006000830152602082019050919050565b6000610409601783610512565b91507f5573657220616c726561647920726567697374657265640000000000000000006000830152602082019050919050565b6000610449601983610512565b91507f48617368206e6f742073746f72656420636f72726563746c79000000000000006000830152602082019050919050565b6000602082019050610491600083018461039e565b92915050565b60006020820190506104ac60008301846103ad565b92915050565b600060208201905081810360008301526104cb816103bc565b9050919050565b600060208201905081810360008301526104eb816103fc565b9050919050565b6000602082019050818103600083015261050b8161043c565b9050919050565b600082825260208201905092915050565b600061052e8261054b565b9050919050565b60008115159050919050565b6000819050919050565b600073ffffffffffffffffffffffffffffffffffffffff82169050919050565b61057481610523565b811461057f57600080fd5b50565b61058b81610541565b811461059657600080fd5b5056fea26469706673582212204daa20ae4c061cfa255fdbb191621d1aba6a70cf9e29dad00f70040d04a2cc2e64736f6c63430008000033",
  "immutableReferences": {},
  "source": "// SPDX-License-Identifier: MIT\r\npragma solidity ^0.8.0;\r\n\r\ncontract AuthContract {\r\n    // Store user credentials (hashed password)\r\n    mapping(address => bytes32) private userPasswordHashes;\r\n\r\n    // Register a new user with a hashed password\r\n    function registerUser(address userAddress, bytes32 passwordHash) public {\r\n        require(userAddress != address(0), \"Invalid address\");\r\n        require(userPasswordHashes[userAddress] == 0, \"User already registered\");\r\n\r\n        // Store the hashed password\r\n        userPasswordHashes[userAddress] = passwordHash;\r\n\r\n        // Check if the hash was stored correctly\r\n        require(userPasswordHashes[userAddress] == passwordHash, \"Hash not stored correctly\");\r\n    }\r\n\r\n    // Authenticate a user with a hashed password\r\n    function authenticate(address userAddress, bytes32 passwordHash) public view returns (bool) {\r\n        return userPasswordHashes[userAddress] == passwordHash;\r\n    }\r\n\r\n    // Retrieve the hashed password for debugging (optional, should be restricted in production)\r\n    function getStoredHash(address userAddress) public view returns (bytes32) {\r\n        return userPasswordHashes[userAddress];\r\n    }\r\n}\r\n",
  "sourcePath": "C:\\Users\\WINDOWS\\Documents\\CSS453_SEiMCS\\contracts\\AuthContract.sol",
  "compiler": {
    "name": "solc",
    "version": "0.8.0+commit.c7dfd78e.Emscripten.clang"
  },
  "schemaVersion": "3.4.16",
  "updatedAt": "2024-11-24T19:06:28.313Z",
  "networkType": "ethereum",
  "devdoc": {
    "kind": "dev",
    "methods": {},
    "version": 1
  },
  "userdoc": {
    "kind": "user",
    "methods": {},
    "version": 1
  }
}