{
  "contractName": "FileIndex",
  "abi": [
    {
      "anonymous": false,
      "inputs": [
        {
          "indexed": true,
          "internalType": "uint256",
          "name": "fileId",
          "type": "uint256"
        },
        {
          "indexed": false,
          "internalType": "string",
          "name": "cid",
          "type": "string"
        },
        {
          "indexed": false,
          "internalType": "string",
          "name": "filePath",
          "type": "string"
        },
        {
          "indexed": true,
          "internalType": "address",
          "name": "uploader",
          "type": "address"
        }
      ],
      "name": "FileStored",
      "type": "event"
    },
    {
      "inputs": [],
      "name": "fileCount",
      "outputs": [
        {
          "internalType": "uint256",
          "name": "",
          "type": "uint256"
        }
      ],
      "stateMutability": "view",
      "type": "function",
      "constant": true
    },
    {
      "inputs": [
        {
          "internalType": "uint256",
          "name": "",
          "type": "uint256"
        }
      ],
      "name": "files",
      "outputs": [
        {
          "internalType": "string",
          "name": "cid",
          "type": "string"
        },
        {
          "internalType": "string",
          "name": "filePath",
          "type": "string"
        },
        {
          "internalType": "address",
          "name": "uploader",
          "type": "address"
        }
      ],
      "stateMutability": "view",
      "type": "function",
      "constant": true
    },
    {
      "inputs": [
        {
          "internalType": "string",
          "name": "_cid",
          "type": "string"
        },
        {
          "internalType": "string",
          "name": "_filePath",
          "type": "string"
        }
      ],
      "name": "storeFile",
      "outputs": [],
      "stateMutability": "nonpayable",
      "type": "function"
    },
    {
      "inputs": [
        {
          "internalType": "uint256",
          "name": "_fileId",
          "type": "uint256"
        }
      ],
      "name": "getFile",
      "outputs": [
        {
          "internalType": "string",
          "name": "",
          "type": "string"
        },
        {
          "internalType": "string",
          "name": "",
          "type": "string"
        },
        {
          "internalType": "address",
          "name": "",
          "type": "address"
        }
      ],
      "stateMutability": "view",
      "type": "function",
      "constant": true
    }
  ],
  "bytecode": "0x608060405234801561001057600080fd5b50610a47806100206000396000f3fe608060405234801561001057600080fd5b506004361061004c5760003560e01c806320de1070146100515780632bfda3131461006d578063439535191461009f578063f4c714b4146100bd575b600080fd5b61006b60048036038101906100669190610663565b6100ef565b005b610087600480360381019061008291906106cf565b610227565b60405161009693929190610786565b60405180910390f35b6100a76103e3565b6040516100b491906107cb565b60405180910390f35b6100d760048036038101906100d291906106cf565b6103e9565b6040516100e693929190610786565b60405180910390f35b60405180606001604052808381526020018281526020013373ffffffffffffffffffffffffffffffffffffffff1681525060008060015481526020019081526020016000206000820151816000019080519060200190610150929190610543565b50602082015181600101908051906020019061016d929190610543565b5060408201518160020160006101000a81548173ffffffffffffffffffffffffffffffffffffffff021916908373ffffffffffffffffffffffffffffffffffffffff1602179055509050503373ffffffffffffffffffffffffffffffffffffffff166001547f7f8959ae4bf6df8ba5a0a9adfc3f7929c114f2ce91ee1461bce593cdabb3478b848460405161020392919061074f565b60405180910390a36001600081548092919061021e90610913565b91905055505050565b60608060008060008086815260200190815260200160002060405180606001604052908160008201805461025a906108e1565b80601f0160208091040260200160405190810160405280929190818152602001828054610286906108e1565b80156102d35780601f106102a8576101008083540402835291602001916102d3565b820191906000526020600020905b8154815290600101906020018083116102b657829003601f168201915b505050505081526020016001820180546102ec906108e1565b80601f0160208091040260200160405190810160405280929190818152602001828054610318906108e1565b80156103655780601f1061033a57610100808354040283529160200191610365565b820191906000526020600020905b81548152906001019060200180831161034857829003601f168201915b505050505081526020016002820160009054906101000a900473ffffffffffffffffffffffffffffffffffffffff1673ffffffffffffffffffffffffffffffffffffffff1673ffffffffffffffffffffffffffffffffffffffff16815250509050806000015181602001518260400151935093509350509193909250565b60015481565b600060205280600052604060002060009150905080600001805461040c906108e1565b80601f0160208091040260200160405190810160405280929190818152602001828054610438906108e1565b80156104855780601f1061045a57610100808354040283529160200191610485565b820191906000526020600020905b81548152906001019060200180831161046857829003601f168201915b50505050509080600101805461049a906108e1565b80601f01602080910402602001604051908101604052809291908181526020018280546104c6906108e1565b80156105135780601f106104e857610100808354040283529160200191610513565b820191906000526020600020905b8154815290600101906020018083116104f657829003601f168201915b5050505050908060020160009054906101000a900473ffffffffffffffffffffffffffffffffffffffff16905083565b82805461054f906108e1565b90600052602060002090601f01602090048101928261057157600085556105b8565b82601f1061058a57805160ff19168380011785556105b8565b828001600101855582156105b8579182015b828111156105b757825182559160200191906001019061059c565b5b5090506105c591906105c9565b5090565b5b808211156105e25760008160009055506001016105ca565b5090565b60006105f96105f484610817565b6107e6565b90508281526020810184848401111561061157600080fd5b61061c84828561089f565b509392505050565b600082601f83011261063557600080fd5b81356106458482602086016105e6565b91505092915050565b60008135905061065d816109fa565b92915050565b6000806040838503121561067657600080fd5b600083013567ffffffffffffffff81111561069057600080fd5b61069c85828601610624565b925050602083013567ffffffffffffffff8111156106b957600080fd5b6106c585828601610624565b9150509250929050565b6000602082840312156106e157600080fd5b60006106ef8482850161064e565b91505092915050565b61070181610863565b82525050565b600061071282610847565b61071c8185610852565b935061072c8185602086016108ae565b610735816109e9565b840191505092915050565b61074981610895565b82525050565b600060408201905081810360008301526107698185610707565b9050818103602083015261077d8184610707565b90509392505050565b600060608201905081810360008301526107a08186610707565b905081810360208301526107b48185610707565b90506107c360408301846106f8565b949350505050565b60006020820190506107e06000830184610740565b92915050565b6000604051905081810181811067ffffffffffffffff8211171561080d5761080c6109ba565b5b8060405250919050565b600067ffffffffffffffff821115610832576108316109ba565b5b601f19601f8301169050602081019050919050565b600081519050919050565b600082825260208201905092915050565b600061086e82610875565b9050919050565b600073ffffffffffffffffffffffffffffffffffffffff82169050919050565b6000819050919050565b82818337600083830152505050565b60005b838110156108cc5780820151818401526020810190506108b1565b838111156108db576000848401525b50505050565b600060028204905060018216806108f957607f821691505b6020821081141561090d5761090c61098b565b5b50919050565b600061091e82610895565b91507fffffffffffffffffffffffffffffffffffffffffffffffffffffffffffffffff8214156109515761095061095c565b5b600182019050919050565b7f4e487b7100000000000000000000000000000000000000000000000000000000600052601160045260246000fd5b7f4e487b7100000000000000000000000000000000000000000000000000000000600052602260045260246000fd5b7f4e487b7100000000000000000000000000000000000000000000000000000000600052604160045260246000fd5b6000601f19601f8301169050919050565b610a0381610895565b8114610a0e57600080fd5b5056fea2646970667358221220b21cbafaf3124bd7748046d1efcc7ca5bd55b86bc31483d8047e2e7cb8a9189964736f6c63430008000033",
  "immutableReferences": {},
  "source": "// SPDX-License-Identifier: MIT\r\npragma solidity ^0.8.0;\r\n\r\ncontract FileIndex {\r\n    struct File {\r\n        string cid;\r\n        string filePath;\r\n        address uploader;\r\n    }\r\n\r\n    mapping(uint256 => File) public files;\r\n    uint256 public fileCount;\r\n\r\n    event FileStored(uint256 indexed fileId, string cid, string filePath, address indexed uploader);\r\n\r\n    function storeFile(string memory _cid, string memory _filePath) public {\r\n        files[fileCount] = File(_cid, _filePath, msg.sender);\r\n        emit FileStored(fileCount, _cid, _filePath, msg.sender);\r\n        fileCount++;\r\n    }\r\n\r\n    function getFile(uint256 _fileId) public view returns (string memory, string memory, address) {\r\n        File memory file = files[_fileId];\r\n        return (file.cid, file.filePath, file.uploader);\r\n    }\r\n}\r\n",
  "sourcePath": "C:\\Users\\WINDOWS\\Documents\\CSS453_SEiMCS\\contracts\\FileIndex.sol",
  "compiler": {
    "name": "solc",
    "version": "0.8.0+commit.c7dfd78e.Emscripten.clang"
  },
  "schemaVersion": "3.4.16",
  "updatedAt": "2024-11-22T15:22:12.952Z",
  "networkType": "ethereum",
  "devdoc": {
    "kind": "dev",
    "methods": {},
    "version": 1
  },
  "userdoc": {
    "kind": "user",
    "methods": {},
    "version": 1
  }
}