{
  "contractName": "StoreCIDs",
  "abi": [
    {
      "anonymous": false,
      "inputs": [
        {
          "indexed": false,
          "internalType": "string",
          "name": "hashedPid",
          "type": "string"
        },
        {
          "indexed": false,
          "internalType": "string",
          "name": "cid",
          "type": "string"
        }
      ],
      "name": "MappingAdded",
      "type": "event"
    },
    {
      "inputs": [
        {
          "internalType": "string",
          "name": "hashedPid",
          "type": "string"
        },
        {
          "internalType": "string",
          "name": "cid",
          "type": "string"
        }
      ],
      "name": "addMapping",
      "outputs": [],
      "stateMutability": "nonpayable",
      "type": "function"
    },
    {
      "inputs": [
        {
          "internalType": "string",
          "name": "hashedPid",
          "type": "string"
        }
      ],
      "name": "getCID",
      "outputs": [
        {
          "internalType": "string",
          "name": "",
          "type": "string"
        }
      ],
      "stateMutability": "view",
      "type": "function",
      "constant": true
    }
  ],
  "bytecode": "0x608060405234801561001057600080fd5b50610901806100206000396000f3fe608060405234801561001057600080fd5b50600436106100365760003560e01c80631c461ee11461003b57806375fa86ce1461006b575b600080fd5b61005560048036038101906100509190610433565b610087565b6040516100629190610687565b60405180910390f35b61008560048036038101906100809190610474565b6101c4565b005b606060008251116100cd576040517f08c379a00000000000000000000000000000000000000000000000000000000081526004016100c490610740565b60405180910390fd5b600080836040516100de9190610670565b908152602001604051809103902080546100f79061082a565b80601f01602080910402602001604051908101604052809291908181526020018280546101239061082a565b80156101705780601f1061014557610100808354040283529160200191610170565b820191906000526020600020905b81548152906001019060200180831161015357829003601f168201915b5050505050905060008151116101bb576040517f08c379a00000000000000000000000000000000000000000000000000000000081526004016101b290610720565b60405180910390fd5b80915050919050565b6000825111610208576040517f08c379a00000000000000000000000000000000000000000000000000000000081526004016101ff90610740565b60405180910390fd5b600081511161024c576040517f08c379a0000000000000000000000000000000000000000000000000000000008152600401610243906106e0565b60405180910390fd5b6000808360405161025d9190610670565b908152602001604051809103902080546102769061082a565b9050146102b8576040517f08c379a00000000000000000000000000000000000000000000000000000000081526004016102af90610700565b60405180910390fd5b806000836040516102c99190610670565b908152602001604051809103902090805190602001906102ea929190610328565b507f21c8112d9b5ff3c2c4e03cefe5cdbc524968f96c6e7b1101951375c1b965bc7b828260405161031c9291906106a9565b60405180910390a15050565b8280546103349061082a565b90600052602060002090601f016020900481019282610356576000855561039d565b82601f1061036f57805160ff191683800117855561039d565b8280016001018555821561039d579182015b8281111561039c578251825591602001919060010190610381565b5b5090506103aa91906103ae565b5090565b5b808211156103c75760008160009055506001016103af565b5090565b60006103de6103d984610791565b610760565b9050828152602081018484840111156103f657600080fd5b6104018482856107e8565b509392505050565b600082601f83011261041a57600080fd5b813561042a8482602086016103cb565b91505092915050565b60006020828403121561044557600080fd5b600082013567ffffffffffffffff81111561045f57600080fd5b61046b84828501610409565b91505092915050565b6000806040838503121561048757600080fd5b600083013567ffffffffffffffff8111156104a157600080fd5b6104ad85828601610409565b925050602083013567ffffffffffffffff8111156104ca57600080fd5b6104d685828601610409565b9150509250929050565b60006104eb826107c1565b6104f581856107cc565b93506105058185602086016107f7565b61050e816108ba565b840191505092915050565b6000610524826107c1565b61052e81856107dd565b935061053e8185602086016107f7565b80840191505092915050565b60006105576013836107cc565b91507f4349442063616e6e6f7420626520656d707479000000000000000000000000006000830152602082019050919050565b60006105976019836107cc565b91507f4861736865642050494420616c726561647920657869737473000000000000006000830152602082019050919050565b60006105d76029836107cc565b91507f434944206e6f7420666f756e6420666f72207468652070726f7669646564206860008301527f61736865642050494400000000000000000000000000000000000000000000006020830152604082019050919050565b600061063d601a836107cc565b91507f486173686564205049442063616e6e6f7420626520656d7074790000000000006000830152602082019050919050565b600061067c8284610519565b915081905092915050565b600060208201905081810360008301526106a181846104e0565b905092915050565b600060408201905081810360008301526106c381856104e0565b905081810360208301526106d781846104e0565b90509392505050565b600060208201905081810360008301526106f98161054a565b9050919050565b600060208201905081810360008301526107198161058a565b9050919050565b60006020820190508181036000830152610739816105ca565b9050919050565b6000602082019050818103600083015261075981610630565b9050919050565b6000604051905081810181811067ffffffffffffffff821117156107875761078661088b565b5b8060405250919050565b600067ffffffffffffffff8211156107ac576107ab61088b565b5b601f19601f8301169050602081019050919050565b600081519050919050565b600082825260208201905092915050565b600081905092915050565b82818337600083830152505050565b60005b838110156108155780820151818401526020810190506107fa565b83811115610824576000848401525b50505050565b6000600282049050600182168061084257607f821691505b602082108114156108565761085561085c565b5b50919050565b7f4e487b7100000000000000000000000000000000000000000000000000000000600052602260045260246000fd5b7f4e487b7100000000000000000000000000000000000000000000000000000000600052604160045260246000fd5b6000601f19601f830116905091905056fea26469706673582212206fc3b43cd0b600ed0f31d9d601d9e12b219f2688e9a780054bdc0fe09515041b64736f6c63430008000033",
  "immutableReferences": {},
  "source": "// SPDX-License-Identifier: MIT\r\npragma solidity ^0.8.0;\r\n\r\ncontract StoreCIDs {\r\n    // Mapping from hashed PID to CID\r\n    mapping(string => string) private hashedPidToCid;\r\n\r\n    // Event to log when a new mapping is added\r\n    event MappingAdded(string hashedPid, string cid);\r\n\r\n    // Function to add a hashed PID -> CID mapping\r\n    function addMapping(string memory hashedPid, string memory cid) public {\r\n        require(bytes(hashedPid).length > 0, \"Hashed PID cannot be empty\");\r\n        require(bytes(cid).length > 0, \"CID cannot be empty\");\r\n        require(bytes(hashedPidToCid[hashedPid]).length == 0, \"Hashed PID already exists\");\r\n\r\n        hashedPidToCid[hashedPid] = cid;\r\n\r\n        emit MappingAdded(hashedPid, cid);\r\n    }\r\n\r\n    // Function to retrieve a CID using a hashed PID\r\n    function getCID(string memory hashedPid) public view returns (string memory) {\r\n        require(bytes(hashedPid).length > 0, \"Hashed PID cannot be empty\");\r\n        string memory cid = hashedPidToCid[hashedPid];\r\n        require(bytes(cid).length > 0, \"CID not found for the provided hashed PID\");\r\n        return cid;\r\n    }\r\n}\r\n",
  "sourcePath": "C:\\Users\\WINDOWS\\Documents\\CSS453_SEiMCS\\contracts\\StoreCIDs.sol",
  "compiler": {
    "name": "solc",
    "version": "0.8.0+commit.c7dfd78e.Emscripten.clang"
  },
  "schemaVersion": "3.4.16",
  "updatedAt": "2024-11-24T19:06:28.316Z",
  "networkType": "ethereum",
  "devdoc": {
    "kind": "dev",
    "methods": {},
    "version": 1
  },
  "userdoc": {
    "kind": "user",
    "methods": {},
    "version": 1
  }
}